:100000000C94ED020C9434030C9434030C943403DC
:100010000C9434030C9434030C9434030C94340384
:100020000C9434030C9434030C949C290C946E2A85
:100030000C9486220C9434030C9434030C943403F3
:100040000C9434030C9434030C9434030C94340354
:100050000C9434030C94D3220C9434030C94340386
:100060000C9434030C9434030C9434030C94340334
:100070000C9434030C9434030C9434030C94340324
:100080000C9434030C9434030C9434030C94340314
:100090000C9434030C9434030C9434030C94340304
:1000A0000C9434030C9434030C9434036B0E6E0ED6
:1000B000760E7B0E800E850E8A0E8F0E940E990E94
:1000C0009E0EA30EA50EA80EAB0EAE0EB10EB40E74
:1000D000B60EBB0E6118611893189318E018141A25
:1000E000141A141AFE189319A419A419041A141A2C
:1000F000141A0D1AB01AB01AC21AC21AB91AC21AB0
:10010000C21AC21AB01AB01ABE1AC21AC21ABE1A3B
:10011000DB2A022BFA2B022BFA2B4E2B712BFA2BFC
:10012000C82BD72BE000E200E30051005000730021
:100130002C00E600E700E10000001D001B000600A7
:100140001900050011001000390004001600070016
:1001500009000A000B000D000E002B0014001A000D
:100160000800150017001C0018000C0035001E00C8
:100170001F00200021002200230024002500290068
:100180003A003B003C003D003E003F004000410083
:100190000000000000000000000000004F00000010
:1001A00000000000000000005200E50038004D0093
:1001B0003700360000000000000000002800340076
:1001C0004A0033000F000000000000003100300042
:1001D0002F004E0013001200000000004B00000032
:1001E0002E002D002A0027002600000000004C00F1
:1001F0000151450044006900430042000000000036
:1002000000000000000000000000000000000000EE
:10021000000000000000C75CCB5CCD5C000000006B
:100220000000C35CC45CC65CCA5CCC5C000000001F
:1002300000000000C05CC15CC25CBF5CBE5C000032
:1002400000000000000000000000000000000000AE
:10025000000000000000000000000000000000009E
:10026000000000000000000000000000000000008E
:10027000000000000000000000000000000000007E
:10028000000000000000000000000000000000006E
:10029000000000000000000000000000000000005E
:1002A000000000000000000000000000000000004E
:1002B000000000000000000000000000000000003E
:1002C000000000000000000001000000000000002D
:1002D0000000000032190A00047F3F1F64321464DA
:1002E0003214783C1E1E140A052223252628292AAA
:1002F0002C2D2F3032333536383A3B3D3E40424389
:100300004547494A4C4E5051535557595A5C5E60C7
:1003100062646668696B6D6F71737577797B7D7FD9
:1003200081838587898A8C8E90929496989A9C9ED8
:100330009FA1A3A5A7A8AAACAEAFB1B3B4B6B8B9F4
:10034000BBBCBEBFC1C2C3C5C6C7C9CACBCCCDCE5C
:10035000D0D1D2D2D3D4D5D6D7D7D8D9D9DADADB3F
:10036000DBDBDCDCDCDCDCDDDDDDDDDCDCDCDCDCCB
:10037000DBDBDBDADAD9D9D8D7D7D6D5D4D3D2D20A
:10038000D1D0CECDCCCBCAC9C7C6C5C3C2C1BFBEF2
:10039000BCBBB9B8B6B4B3B1AFAEACAAA8A7A5A35D
:1003A000A19F9E9C9A98969492908E8C8A8987851C
:1003B00083817F7D7B79777573716F6D6B696866FB
:1003C0006462605E5C5A5957555351504E4C4A49CD
:1003D00047454342403E3D3B3A3836353332302F75
:1003E0002D2C2A292826252322FFAA7F55400001EB
:1003F00001010101010101010202020202020202E5
:1004000002030303030303030304040404040404B6
:10041000050505050506060606060707070707087A
:10042000080808090909090A0A0A0B0B0B0C0C0C2D
:100430000D0D0D0E0E0E0F0F0F10101111111212C7
:1004400013131414151516161717181819191A1A44
:100450001B1B1C1D1D1E1E1F2020212222232424A5
:10046000252626272829292A2B2C2D2D2E2F3031E1
:100470003232333435363738393A3B3C3D3E3F40F3
:100480004142434445464748494A4C4D4E4F5051DE
:100490005354555658595A5B5D5E5F616264656698
:1004A00068696B6C6D6F7072737577787A7B7D7E1F
:1004B0008082838587888A8C8E8F91939596989A6F
:1004C0009C9EA0A2A3A5A7A9ABADAFB1B3B5B7BA87
:1004D000BCBEC0C2C4C6C9CBCDCFD1D4D6D8DBDD5B
:1004E000DFE2E4E7E9EBEEF0F3F5F8FAFDFF1A03DB
:1004F00059004D0044003700350020002F00200037
:100500004D0054003800340000000A0359004D002B
:1005100044004B0000000403090409023B000201EF
:1005200000A0FA09040000010301010009211101E2
:1005300000012240000705810308000A09040100A8
:10054000010300000009211101000122320007050A
:10055000820320000A1201100100000008A0202DD3
:100560004200030102000105010980A10185031970
:10057000012AB700150126B700950175108100C04A
:10058000050C0901A101850419012AA00215012603
:10059000A002950175108100C005010906A10105A1
:1005A0000719E029E71500250195087501810295D5
:1005B00001750881010507190029FF150026FF00B4
:1005C000950675088100050819012905950575012D
:1005D0009102950175039101C00011241FBECFEF58
:1005E000DAE0DEBFCDBF04B603FE27C080918303EF
:1005F00090918403A0918503B09186038730904B3E
:10060000A740B04BD1F41092830310928403109250
:1006100085031092860314BE84B7877F84BF0FB60C
:10062000F894A89580916000886180936000109292
:1006300060000FBEE0E0F8E3099511E0A0E0B1E052
:10064000EEE7FBE502C005900D92A63CB107D9F795
:1006500023E0A6ECB1E001C01D92A338B207E1F798
:100660000E94DC260C94BD2D0C940000519A089534
:100670000E9436030C948B16CF93C82F0E9415044A
:10068000882329F0C1FF02C0599A01C0599881E01E
:10069000CF91089581E0089581E008950C944C0372
:1006A00008950C9450031F93CF93DF9300D000D094
:1006B0001F92CDB7DEB749835A836B8330916902AD
:1006C00089819A81311114C0662359F0222349F09F
:1006D0000E94E91F182F682F89819A810E94921F1A
:1006E00003C00E94BD1F182F69817A81812F04C029
:1006F0000E94E91F69817A810F900F900F900F90EF
:100700000F90DF91CF911F910C942404FC01262FB0
:10071000408151816281738184810C945303CF9312
:10072000DF93EC0160E00E948603BE01DF91CF9170
:100730000C9451030E941B21811102C00E94D521FB
:100740000E943E100C943D060C94390608950E94B8
:100750009E1A0E94A6032FEF84E39CE02150804064
:100760009040E1F700C000000C94F9220F931F9312
:10077000CF93DF9300D0CDB7DEB78C0161E00E944C
:1007800086039A838983B801CE0101960E949A124A
:100790008823B1F1B80189819A810E944E03882390
:1007A00079F1B80189819A810E949F0F882341F1D4
:1007B000B80189819A810E94EC10882309F1B8015F
:1007C00089819A810E943E118823D1F0B8018981E4
:1007D0009A810E946912882399F0B80189819A81CF
:1007E0000E94540E882361F0F8018281882381F0F1
:1007F00089819A8181152CE5920721F40E94A70333
:1008000080E009C0803E9C4519F40E94D521F8CFB4
:10081000C8010E944A030F900F90DF91CF911F9162
:100820000F91089508950C94120481E00895CF93D8
:10083000C82F0E9413048C2F0E943C03CF9108956F
:1008400080E090E0089508952CE6829FC001112475
:10085000FC0129E0729FE00DF11D1124E60FF11D4E
:10086000EE0FFF1FEC5DFE4F859194910895880F68
:10087000991FFC01EC52FD4F859194910895CF93FF
:10088000DF930E9424040E945105EC0181159045DC
:1008900008F043C0C11580E4D80708F0CBC0C03EC3
:1008A000D10528F5C03CD10508F0B3C0C83AD10540
:1008B00078F4C53AD10508F0A4C0C130D10509F4D7
:1008C000ECC008F4E8C0C430D10508F0E6C0E3C0CD
:1008D000CF3BD10508F0DFC0C85AD0E0CC0FDD1FF8
:1008E000CC5DDE4F0990D881C02DD464D6C0C1152F
:1008F00090E2D90750F4C11521E0D20708F0CDC02D
:10090000C83ED10508F4C9C0C6C0C11580E3D807E8
:1009100008F086C0CE019F707FC0C11595E5D9074C
:1009200008F043C0C11524E5D20708F09AC0C115EC
:1009300082E5D80708F5C11591E5D90708F07DC013
:10094000CE0174E0969587957A95E1F783709C2F98
:10095000937021E030E002C0220F331F9A95E2F736
:100960003C68382BCF70C695C69580E2C89FE001E1
:100970001124C22BD32B91C09E01237033278C2FBF
:1009800086958695C115D34508F05CC0C1E0D0E0DE
:1009900002C0CC0FDD1F2A95E2F720E2829FC00142
:1009A0001124C82BD92BDC6878C0C11529E5D207E2
:1009B000A0F4C11588E5D80708F058C0C11596E520
:1009C000D90708F068C08C2F0E94E5058F71C82FE9
:1009D000D0E0DC2FCC27D06260C0C1152AE5D20759
:1009E00008F449C0CE0190568115904208F053C0DA
:1009F0008D2F8F710E94E505DD27D0628F71D82B76
:100A00004CC0C55AD0E0CE5ADE4FC881D0E0D06489
:100A100044C0CE01805C91090E943704EC013DC0C6
:100A2000CE019927D3FF03C0EC01D86C36C0EC018E
:100A3000D06C33C0DF70D06A30C0DC2FCC27C16FE0
:100A4000D06A2BC0C1E0D0E002C0CC0FDD1F2A95D8
:100A5000E2F720E2829FC0011124C82BD92BDA686B
:100A60001CC0DC2FCC27C46FD06A17C0DC2FCC276A
:100A7000C06FD06A12C08C2F8F700E94E50594E081
:100A8000D695C7959A95E1F7CF70D0E0DC2FCC27AB
:100A9000D069C82B02C0C0E0D0E0CE01DF91CF9179
:100AA00008958238910569F1B0F48133910509F414
:100AB0006DC048F48932910509F463C08A3291050A
:100AC00009F469C008958533910509F455C0893347
:100AD0009105B9F00895833E910569F138F4803E9F
:100AE0009105B1F0823E910509F10895863E910588
:100AF000A9F1873E9105B9F1843E910509F064C0E2
:100B000023C02091740320FD4FC021FD4DC00895E6
:100B10008091740380FD44C08091750380FF44C0C0
:100B20008091740384FD42C083EE4DC080917403B4
:100B300082FF38C0F5CF8091740382FD33C080916D
:100B4000750380FD31C0ECCF8091750381FF32C009
:100B50008091740384FD2AC087EE35C080917403B0
:100B600083FF26C0F5CF8091740383FD21C080915F
:100B7000750381FD1FC0ECCF8091740385FD1CC0FF
:100B80001DC08091740385FD19C016C08091740347
:100B900086FD16C017C08091740386FD13C010C077
:100BA00089E311C082EE0FC080EE0DC080E00BC063
:100BB00086EE09C084EE07C089E205C085E303C064
:100BC0008AE201C081E390E008959091740392FF5E
:100BD0000DC0282F2871283019F4877F846006C043
:100BE000282F2471243011F48B7F886093FF0DC06F
:100BF000282F2871283119F4877E846106C0282F98
:100C00002471243111F48B7E88612091750320FFBB
:100C10000DC0382F3871383019F4877F816006C0D5
:100C2000382F3171313011F48E7F886021FF0DC073
:100C3000282F2871283119F4877E816106C0282F5A
:100C40002171213111F48E7E886194FD877E089593
:100C5000E82FF0E0EE0FFF1FEE5DFC4F80819181E9
:100C60000895089580EA8A95F1F7089508950C94FF
:100C700036060C9437060C9436060C943B06F89412
:100C8000E82FE295EF70F0E031A1282F2F7081E07E
:100C900090E001C0880F2A95EAF7982F909593234A
:100CA00091A392A1892B82A378940895CF93DF9387
:100CB000C5E5D1E089910E943F0681E0CE35D80795
:100CC000C9F7CEE5D1E089910E943F0681E0CA369E
:100CD000D807C9F7EAE0F3E0A2E2B3E082E293E0EA
:100CE000119211921D921D928E179F07C9F78CE0E9
:100CF0000E941707DF91CF910C949A034F925F9255
:100D00007F928F929F92AF92BF92CF92DF92EF929B
:100D1000FF920F931F93CF93DF9395E5E92E91E018
:100D2000F92E00E010E0C0E0CC24C394D12C32E2D4
:100D3000A32E33E0B32E4701D7018C91F894E82F0E
:100D4000E295EF70F0E021A18F70A60102C0440F80
:100D5000551F8A95E2F7CA01922F982B91A392A171
:100D60008095892382A378940E943206A601002EE2
:100D700002C0440F551F0A94E2F7BA0160957095BE
:100D8000EAE0F3E08EE5482E81E0582ED0E02081A5
:100D90003181D2017D902D01872D82958F7090E059
:100DA000DC0190968C9190E0B72DBF7002C09595B4
:100DB0008795BA95E2F780FD04C0C901842B952B75
:100DC00003C0C901862397232817390719F0918397
:100DD0008083D1E03296AE16BF06C9F6EFEFEE1A69
:100DE000FE0AD4018C910E943F06CD2B0F5F1F4F4E
:100DF0000930110509F09FCF2C2F4CE062E273E01F
:100E00008AE093E00E9418070E94A4038C2FDF91D0
:100E1000CF911F910F91FF90EF90DF90CF90BF90F7
:100E2000AF909F908F907F905F904F90089508951E
:100E3000FF920F931F93CF93DF93F82E092F162F56
:100E4000D72FC42F222349F081E08093C8010E944C
:100E5000B8229093C7018093C6018091C80188236E
:100E6000D9F08091C6019091C7010E94C4220697D3
:100E700098F0EF2DF02FA12FBD2F80E090E04C2FA8
:100E800050E08417950734F4219131912D933D93CF
:100E90000196F7CF1092C801DF91CF911F910F916A
:100EA000FF900895EF92FF920F931F93CF93DF93DC
:100EB0008B01682F11110AC0442329F0E82FF0E0BC
:100EC000E251FC4F6491762F862F75C0212F30E0C0
:100ED000E82FF0E0442321F0E251FC4FE491F0E0F0
:100EE00046E0049FC0011124CFEFD0E0BE010E9474
:100EF0004A2C4BEA4603C001479F900D1124800FF6
:100F0000911D800F911D982F990F890FAE01421BE3
:100F1000530B4E9FD0014F9FB00D5E9FB00D11241B
:100F20009B2F189FA0011124452F55278E01041BCC
:100F3000150B0E9FA0010F9F500D1E9F500D1124E9
:100F40007E01E81AF108E29E8001E39E100DF29EF8
:100F5000100D1124212F3327C21BD30BCE9F9001DC
:100F6000CF9F300DDE9F300D112462307105A9F046
:100F700048F46115710569F061307105C9F48B2F72
:100F8000752F0DC06430710581F058F06630710521
:100F900079F47E2F8B2F932F0DC0832F7B2F9E2FC5
:100FA00009C08E2F7B2F952F05C08E2F732F02C067
:100FB0007E2F852F692FDF91CF911F910F91FF9089
:100FC000EF90089541E00E945207089508950E940D
:100FD000E2070895CF93DF93762FE901682F842FDE
:100FE0000E94E707798368838A83DF91CF91089510
:100FF00080913A03282F269530E02115310519F408
:101000008170826005C02B32310524F081708465C7
:1010100080933A03089588E090E00C945E2DCF927F
:10102000DF92EF92FF926B017C010E94F807B701FB
:10103000A60188E090E0FF90EF90DF90CF900C94B5
:101040007C2DEAE3F3E083E0808311828FEF8283DB
:101050008383148260817181828193810C940F0853
:1010600080913A0380FF02C08695089580E008953C
:1010700090913E03933018F49F5F90933E03882332
:1010800051F060913A0370913B0380913C03909141
:101090003D030C940F08089581E00C94380890915A
:1010A0003E03992319F0915090933E03882351F009
:1010B00060913A0370913B0380913C0390913D0312
:1010C0000C940F08089581E00C944F0870E00C9484
:1010D0004E106091080180913A0380FF0AC0809110
:1010E000070123E0829FC0011124815C9C4F0C9476
:1010F00066088091090190910A01891780F7E82F0D
:10110000F0E09F01220F331FE20FF31FE15CFC4F61
:101110001182108212828F5FF0CF90913A0390FF7C
:1011200016C09091090120910A01921770F4E92FDD
:10113000F0E0DF01AA0FBB1FEA0FFB1FE15CFC4FD1
:101140008183608342839F5FF0CF0C946908089588
:10115000CF93DF9300D01F92CDB7DEB790913A03C3
:1011600090FF0AC09E012F5F3F4F0E94EA074B810C
:1011700069818A810E948D080F900F900F90DF91F6
:10118000CF910895CF93DF93EC01EC81F0E0E7512C
:10119000FD4F4491EAE3F3E0628181810E94A80857
:1011A0008C818F5F8C83DF91CF910895CF93DF93F4
:1011B000EC01EAE3F3E0438162818C810E94A8089C
:1011C0008C818F5F8C83DF91CF9108950F931F9354
:1011D000CF93DF9300D01F92CDB7DEB78C01809103
:1011E000C90181110AC09E012F5F3F4F4FEF6FEF82
:1011F0000E94EA078A818093C901F80184818130C5
:1012000051F028F0823061F44091C9010AC0809108
:10121000C90140E007C06091C90140E080E003C01F
:1012200040E080E060E00E948D08F801848190E059
:10123000019663E070E00E945E2C84830F900F9013
:101240000F90DF91CF911F910F910895AF92BF92B0
:10125000CF92DF92EF92FF920F931F93CF93DF9382
:1012600000D01F92CDB7DEB7182FF62E042FE22E36
:1012700090913A0390FF6DC0E92FE695AE2FB0E054
:10128000A659BE4F8C91809323029E7F923061F4C9
:101290009E012F5F3F4F812F0E94EA074B8169819A
:1012A0008A810E948D0843C0823019F400913D0369
:1012B0003EC0863019F410913B0339C08930D9F310
:1012C0008931A9F5E9518E2F8170D82EE695F0E08D
:1012D000E751FC4FA590B490C12CBB2460910B0149
:1012E000C61618F52C2D30E0A29EC001A39E900DCD
:1012F000B29E900D112470E00E944A2C812FD110D3
:1013000002C0860F01C0861B90910901290F311D73
:10131000A901440F551F240F351F215C3C4F402F5E
:101320006F2D0E94EA07C394D9CF0E9469081093D9
:101330003B03F0923C0300933D03EE2051F060919B
:101340003A0370913B0380913C0390913D030E94CE
:101350000F080F900F900F90DF91CF911F910F9179
:10136000FF90EF90DF90CF90BF90AF900895EAE3A9
:10137000F3E09181282F438162818CE0890F0C94E6
:10138000260981E00C94B709EAE3F3E09181282F64
:101390004381628184EF890F0C94260981E00C94CB
:1013A000C409EAE3F3E062812FE0620F08F46FEF13
:1013B000282F438181810C94260981E00C94D10966
:1013C000EAE3F3E062812FE0621B08F460E0282F7B
:1013D000438181810C94260981E00C94E009EAE3C1
:1013E000F3E0438122E1420F08F44FEF282F62819E
:1013F00081810C94260981E00C94EF09EAE3F3E083
:10140000438122E1421B08F440E0282F6281818160
:101410000C94260981E00C94FE0920E00C94260926
:10142000FF920F931F93CF93DF93EC01F12C0FEFFB
:1014300010E060910B01F616F0F4809109012F2D58
:1014400030E0280F311DC901880F991F280F391F5F
:10145000215C3C4F70E0C8010E945E2C962F8C816D
:1014600040913D0360913C03F99E800D11240E9440
:10147000EA07F394DECF0E9469089A818C8190FF7D
:1014800002C08F5F01C081508C83DF91CF911F918B
:101490000F91FF900895BF92CF92DF92EF92FF924B
:1014A0000F931F93CF93DF93FC01828180FF02C0D3
:1014B0000FEF01C001E010E080910B01181708F058
:1014C00040C080910901C12ED12CE601C80FD11D69
:1014D000CE01880F991FC80FD91FC15CDC4F19823C
:1014E00018821A8234E0E32EF12CB12C8091CB01CA
:1014F0008B0D813114F08F7005C087FF03C0909170
:101500000B01890F082E000C990BC816D90691F40F
:1015100080913D038E9DA0018F9D500D1124559506
:101520004795559547959E0160913C0380913B03FB
:101530000E94EA07B00EF1E0EF1AF108B9F61F5F5A
:10154000BBCF0E9469088091CB01013031F4811139
:1015500002C080910B01815007C090E0019660911C
:101560000B0170E00E945E2C8093CB01DF91CF9144
:101570001F910F91FF90EF90DF90CF90BF90089553
:10158000CF938091090190910A01891770F4E82F97
:10159000F0E09F01220F331FE20FF31FE15CFC4FCD
:1015A0001182108212828F5FF0CFC0E060910B0138
:1015B000C617C8F5EC2FF0E0CF01049670E00E944A
:1015C0005E2C20910901820F2091CA01022E000C8D
:1015D000330B90E0E217F307CCF020910601022EC6
:1015E000000C330B2E173F078CF09C01220F331F8A
:1015F000820F931F9C01215C3C4F40913D03609101
:101600003C0380913B030E94EA070BC0FC01EE0FF4
:10161000FF1F8E0F9F1FFC01E15CFC4F11821082A7
:101620001282CF5FC3CF0E9469082091050180918B
:10163000CA01820F8093CA0190910601920F909384
:10164000060119165CF4082E000C990B40910B0151
:1016500050E041505109841795071CF021952093C3
:101660000501CF9108958F929F92AF92BF92CF9232
:10167000DF92EF92FF920F931F93CF93DF938C0132
:10168000FC014481C42FD0E09E01DE010E94A22C07
:101690009B01AC010E94B82C6B017C01E0E2F0E000
:1016A000EC1BFD0BA5E5B0E09B01AC010E94B82C42
:1016B0004B015C019F01DF010E949A2C9B01AC0150
:1016C0000E94C32C9B01AC012C0D3D1D4E1D5F1DC6
:1016D000C501B4010E94722CC22FD22F2A3228F4E5
:1016E000F3E02F9F900111240DC025E530E02C1B65
:1016F0003109C901880F991F280F391F37FF02C010
:101700002F5F3F4F35952795C22FC095F12C85E56A
:10171000E82EED1A80910B01F816C8F4F1FC02C016
:101720008E2D01C08D2F909109012F2D30E0290FB2
:10173000311DA901440F551F240F351F215C3C4F5B
:101740004C2F60913C030E94EA07F394E3CF0E9480
:101750006908F8018481811102C091E003C08032E0
:1017600019F49FEF9093040190910401890FF801FF
:101770008483DF91CF911F910F91FF90EF90DF90C5
:10178000CF90BF90AF909F908F9008950F931F932D
:10179000CF93DF93EC0100E010E080910B01282F44
:1017A00030E00217130724F5909109019801290FE1
:1017B000311DA901440F551F240F351F215C3C4FDB
:1017C000869590E04C81081719071CF4442331F0EA
:1017D00002C0411103C040913D0301C040E060914F
:1017E0003C0380913B030E94EA070F5F1F4FD5CF58
:1017F0000E9469088C8190E00196817099278C8302
:10180000DF91CF911F910F9108958F929F92AF9288
:10181000BF92CF92DF92EF92FF920F931F93CF93DD
:10182000DF93FC01B280948081E0848300E015E0C6
:101830005BE4A52E88248394EE24EA94F12C7BE4C7
:10184000C72ED12C80910B01081708F08FC0C02F34
:10185000D0E01C9FF0011D9FF00D1124E453FE4FBA
:10186000911003C01382128267C02381222389F161
:10187000215023833481332319F09A2D921B01C008
:10188000922F80913D031C9FF0011D9FF00D1124AC
:10189000E453FE4F899FC0011124B6010E944A2CD7
:1018A0006283211104C0332311F01482A38222E049
:1018B0002B1508F441C01C9FF0011D9FF00D112451
:1018C000E453FE4F80913B03808380913C038183EE
:1018D00033C00E94392D8230914074F582E08B151F
:1018E00030F40E94392DB7010E945E2C02C0809115
:1018F0003B031C9FF0011D9FF00D1124E453FE4F8C
:10190000808322E02B1558F40E94392D20913C034E
:101910002695622F70E00E945E2C820F02C080919B
:101920003C031C9FF0011D9FF00D1124E453FE4F5A
:1019300081831282A3828482809109019E01280FF3
:10194000311DC901880F991F280F391F215C3C4F99
:101950001C9FF0011D9FF00D1124E453FE4F4281A6
:10196000618180810E94EA070F5F6CCFDF91CF9188
:101970001F910F91FF90EF90DF90CF90BF90AF90AD
:101980009F908F900C946908EAE3F3E080818E7F4A
:10199000808360817181828193810E940F081092FF
:1019A00024022FEF80E792E0215080409040E1F741
:1019B00000C000000C94690860913A03669570E0DD
:1019C0004BE050E08CE091E00E94492D892B19F406
:1019D00081E0809324020E94B82290931D0280939C
:1019E0001C02089590913A0390FF35C091708111C7
:1019F00002C0926006C08B3210F0946502C0880F5E
:101A0000982B90933A03662351F060913A037091BA
:101A10003B0380913C0390913D030E940F0860912D
:101A20003A03669570E04BE050E08CE091E00E9454
:101A3000492D892B19F01092240202C00E94DC0C5F
:101A400081E080931F0240913D0360913C038091AF
:101A50003B030C940D0A0895682F90913A039695D4
:101A600081E0890F8B3208F081E00C94F20C81E068
:101A70000C942C0D682F90913A0396958FEF890F57
:101A800009F48AE20C94F20C81E00C943A0D61E0C6
:101A90000C94F20CEAE3F3E0808181608083869508
:101AA0000C94470D80913A0380FD0C94C40C0C9467
:101AB0004A0D60E00C94F20C8091220281112EC03C
:101AC0000E941B21811104C00E94D5210E9421087F
:101AD0000E940B0860933A0370933B0380933C038E
:101AE00090933D036E7F61F40E9421080E940B08D1
:101AF00060933A0370933B0380933C0390933D03C0
:101B00000E94F8071092240280913A0380FF03C0DC
:101B100086950E94590D81E08093220208950F93CB
:101B20001F93CF93DF9380912402882309F49CC0F4
:101B300080912302E0913A03E695E81BE0931E02B0
:101B4000823049F4F0E0EB51FD4FE491CE2FD0E02C
:101B500002EC18E059C0863049F4F0E0EE51FD4F38
:101B6000E491CE2FD0E006ED18E04EC0893051F45C
:101B7000E695F0E0E152FD4FE491CE2FD0E000E198
:101B80001AE042C08F3051F4E695F0E0E452FD4F88
:101B9000E491CE2FD0E00BE41AE036C0853149F451
:101BA000F0E0E752FD4FE491CE2FD0E000EC1AE0D8
:101BB0002BC08831D9F0833239F4E7EDF2E0C591DA
:101BC000D49106EE18E020C08432A9F08532C1F429
:101BD0008E2F63E00E943E2CE92FF0E0EC52FD4F87
:101BE000E491CE2FD0E005E01CE00EC0C8E2D0E0CA
:101BF00003E31BE009C0C4EFD1E006EC1BE004C026
:101C0000C0EDD7E006EE17E080911F02882389F02F
:101C100010921F020E94B8229E0120953095820FDB
:101C2000931F90931D0280931C0210922102109228
:101C3000200280911C0290911D020E94C4228C17E8
:101C40009D0790F0E0911C02F0911D02CE0FDF1F66
:101C5000D0931D02C0931C028CE192E0F801DF9149
:101C6000CF911F910F910994DF91CF911F910F9107
:101C70000895882311F0FA0101C0FB010994CF9364
:101C8000DF93C82FD62F0E9430088C1740F00E9497
:101C900030088D1720F4DF91CF910C94370D8C2FE5
:101CA000DF91CF910C94470D0F931F93CF93FB01BE
:101CB000C281CC2309F463C08C010E946A20827225
:101CC000F801E35CFC45E431F10508F059C0EA5A3B
:101CD000FF4F0C94942C0E94520D06C044E45DE02A
:101CE00067E37DE00E94390EC0E04AC047E35DE053
:101CF00064E47DE0F7CF4EEC59E061EC79E0F2CF9F
:101D000041EC59E06EEC79E0EDCF4CEE59E06DED31
:101D100079E0E8CF4DED59E06CEE79E0E3CF4AE0B1
:101D20005AE06BEF79E0DECF4BEF59E06AE07AE002
:101D3000D9CF43E658E06CE478E0D4CF4CE458E0E7
:101D400063E678E0CFCF81E017C065E082E010C0A5
:101D500068E086E00DC06EE089E00AC064E18FE0D3
:101D600007C067E185E104C088E106C062E289E15D
:101D70000E943F0EB9CF83E20E94470DB5CFC1E06C
:101D80008C2FCF911F910F9108950E941B218111DB
:101D900002C00E94D5210E94562180936F03282FF4
:101DA00026952695269530E02D30310524F0877054
:101DB000806680936F0380916F0380FF04C08695D7
:101DC0008695869501C080E00C94D40F20916F0316
:101DD000822F869586958695482F50E04C30510588
:101DE00054F48F5F982F990F990F990F822F877056
:101DF000892B80936F0380916F03816080936F03C1
:101E00000E945A2180916F038695869586950C9441
:101E1000D40F80916F03982F969596959695A1F083
:101E2000915E990F990F990F8770892B80936F039B
:101E3000887F91E009F490E080916F0390FB80F936
:101E400080936F030E945A2180916F038695869537
:101E500086950C94D40F80916F0380FD13C0816030
:101E600080936F03813019F489E080936F03809130
:101E70006F030E945A2180916F03869586958695FF
:101E80000C94D40F089580916F0380FF08C08E7F5B
:101E900080936F030E945A2180E00C94D40F089520
:101EA00080916F0380FD0C94430F0C942B0F909145
:101EB0006F03892F8695869586958F5F8F719770B2
:101EC0008D3038F4880F880F880F892B80936F032B
:101ED00002C090936F0380916F03887F91E009F4B3
:101EE00090E080916F0390FB80F980936F030E94D4
:101EF0005A2180916F038695869586950C94D40F10
:101F00008D3008F08CE090916F039770282F220F8E
:101F1000220F220F922B90936F03987F21E009F4F8
:101F200020E090916F0320FB90F990936F030C9445
:101F3000D40F0E94800F80916F030C945A219C0152
:101F4000FB018281882349F12E3BFCE53F07C9F064
:101F500040F42C3BECE53E0769F02D3B3C4561F03D
:101F60000895203C9CE5390791F070F0213C3C45F8
:101F700089F008958CE001C080E00E94990F80E014
:101F800008950E94090FFBCF0E94E60EF8CF0E9431
:101F9000500FF5CF0E94570FF2CF81E00895269A97
:101FA0002E9808952E980895CF92DF92EF92FF9287
:101FB000CF93C82F8D3050F4811109C080918000DB
:101FC0008F7D809380000E94D20F06C0CCE080916C
:101FD00080008062809380002C2F30E0AFEFBFEF55
:101FE0000E94A22C2CE030E040E050E00E94722CD5
:101FF000B42FA32F922F8827492F5A2F6B2F772783
:10200000CA014C3724E1520728F469E070E00E94CD
:102010004A2C29C0DB01CA018A50974DAF4FBF4FF0
:102020006627782F892F9A2F25EF38E241E050E07C
:102030000E94722C69017A01CA01B9010E942E2CFA
:102040009B01AC01C701B6010E942E2CBB27A92F12
:10205000982F872F009721E0A207B10511F0BC014E
:1020600002C06FEF7FEF70938B0060938A00CF9177
:10207000FF90EF90DF90CF90089508950E94CF0FCA
:1020800082E28093800089E1809381008FEF9FEF4F
:1020900090938700809386000C94C50E6A9A2EB1A7
:1020A0002B7F3EB134604FB7F894FC01CB01880F11
:1020B000991F680F791F6E0F7F1FE617F70789F0CA
:1020C000819198E03EB9000000C087FF2EB9880FCB
:1020D000000000C000C000C02EB900C09A9591F762
:1020E000ECCF4FBF8FE594E00197F1F700C00000FF
:1020F00008950F931F93CF93DF93C42FD22FFC012A
:1021000082818823C9F0409327020E94B8229093CD
:1021100026028093250280E28C0F883008F057C099
:10212000C77081E001C0880FCA95EAF7DF91CF91AF
:102130001F910F910C941D1880912702481330C0F5
:1021400080912502909126020E94C422883C91052C
:1021500038F510E21D0FCD17B9F080E28C0F8830F2
:1021600040F4C77081E001C0880FCA95EAF70E9469
:102170002418183028F581E09D2F977001C0880F32
:102180009A95EAF70E941D18802F0E940A181830AD
:10219000F0F4D77081E001C0880FDA95EAF70AC041
:1021A00080E28C0F883098F4C77081E001C0880FFE
:1021B000CA95EAF7DF91CF911F910F910C942418E3
:1021C000802FDF91CF911F910F910C940A18DF910E
:1021D000CF911F910F9108950F939C01CB01253F43
:1021E0004CE5340731F188F4293DFCE53F07D9F08F
:1021F0002A3D4CE5340779F1283D3C45A9F506E236
:1022000021EE41EE68ED7CE52BC0273FFCE53F0762
:10221000E1F0A8F0283F3C4539F507E225EE46EE0F
:1022200068EF7CE51DC007E225EE45EE69ED7CE533
:1022300017C006E221EE40EE65EF7CE511C007E233
:1022400025EE44EE66EF7CE50BC006E221EE42EEA1
:1022500067EF7CE505C008E221E045EE6AED7CE52C
:102260000E94791080E008C0FC018281882319F067
:102270001092270201C081E00F910895CF93DF9360
:10228000EC01FB018281882309F41FC1C230FCE507
:10229000DF0708F41BC1C6319CE5D90738F09E0161
:1022A0002C5F3C452930310508F010C10E943821CF
:1022B0009093750380937403C031ECE5DE0709F455
:1022C000C3C008F041C0C8308CE5D80709F49AC0F3
:1022D000F0F4C430ECE5DE0709F487C068F4C230DE
:1022E0008CE5D80709F477C0C330DC4509F0E3C0BA
:1022F00080917403826076C0C630ECE5DE0709F495
:102300006EC008F07BC08091740388606BC0CC30D5
:102310008CE5D80709F485C068F4CA30ECE5DE071F
:1023200009F474C008F079C00E949E1A8091740369
:10233000806858C0CE308CE5D80709F476C008F024
:102340007FC0809174038BC0CD3FECE5DE0709F4BC
:102350004FC018F5C3318CE5D80709F47DC078F477
:10236000C131ECE5DE0709F473C0C231DC4509F088
:10237000A2C00E949E1A809174038F7733C0C5312A
:102380008CE5D80709F472C008F486C0CC3FDC4560
:1023900009F091C0809175033EC0C130FDE5DF07B3
:1023A00009F45FC058F4CF3F9CE5D90709F444C055
:1023B00008F43FC08091750382602DC0C330FDE5F5
:1023C000DF0709F475C008F45DC0C430DD4509F0CD
:1023D00072C080E06EC080917403816003C0809100
:1023E000740380618093740366C08091740311C08C
:1023F000809175038260809375035DC08091740342
:102400008062F0CF809174038064ECCF809174037C
:1024100088608460E7CF8160EECF809174038E7F07
:10242000E1CF809174038D7FDDCF80917403877F2E
:10243000D9CF8091750318C0809175038D7FDBCF54
:10244000809174038F7ECECF809174038F7DCACF2D
:10245000809174038F7BC6CF80917403877F8B7FBD
:10246000C1CF809175038D7F8E7FC5CF809174031E
:1024700082FB222720F991E0922790FB82F990FBC2
:1024800083F9B0CF80917503982F909591708E7FCE
:10249000892B90FB81F9AFCF0E949E1A8091740323
:1024A00087FB222720F991E0922790FB87F99ACFAA
:1024B00081E00E94D72180917403909175030E945E
:1024C00049210E949E1A80E001C081E0DF91CF91F6
:1024D0000895CF93DF9386319C4541F5EB010E942F
:1024E0006A20982F8A812091170130911801882342
:1024F00079F09A7A81E009F480E0809328029111C2
:1025000002C069E201C065E3C9010E941E220AC03F
:1025100080912802811102C069E201C065E3C9010E
:102520000E9420220E94B82080E001C081E0DF915B
:10253000CF9108958F929F92AF92BF92CF92DF92E8
:10254000EF92FF920F931F93CF93DF937C01DC01F7
:10255000ED91FC91CF01815095458F3F910510F48D
:10256000B5E5FB27DB011296CC91CC2309F4B4C26C
:10257000EF3FF10579F070F0EF3DFC4519F0109256
:10258000290260C39091290281E089278093290262
:10259000A0E059C3A0912902AA2309F4EBC010922C
:1025A0002902E03CF10540F4E038F10508F073C081
:1025B000E034F105D0F505C0EF3FF10509F008F46E
:1025C000A0C021E030E040E050E060E070E080E05A
:1025D00090E00E2F0E94CB2CB0912A022B2BB091B1
:1025E0002B023B2BB0912C024B2BB0912D025B2B7D
:1025F000B0912E026B2BB0912F027B2BB091300249
:102600008B2BB09131029B2B20932A0230932B020B
:1026100040932C0250932D0260932E0270932F0250
:102620008093300290933102A1C021E030E040E07D
:1026300050E060E070E080E090E08F01005411090C
:102640000E94CB2CB09132022B2BB09133023B2B4A
:10265000B09134024B2BB09135025B2BB091360216
:102660006B2BB09137027B2BB09138028B2BB09142
:1026700039029B2B20933202309333024093340271
:10268000509335026093360270933702809338027C
:10269000909339026BC021E030E040E050E060E010
:1026A00070E080E090E08F01005811090E94CB2C6F
:1026B000B0913A022B2BB0913B023B2BB0913C02E4
:1026C0004B2BB0913D025B2BB0913E026B2BB09136
:1026D0003F027B2BB09140028B2BB09141029B2B90
:1026E00020933A0230933B0240933C0250933D02C8
:1026F00060933E0270933F028093400290934102A8
:1027000035C021E030E040E050E060E070E080E083
:1027100090E08F01005C11090E94CB2CB091420225
:102720002B2BB09143023B2BB09144024B2BB09129
:1027300045025B2BB09146026B2BB09147027B2B7D
:10274000B09148028B2BB09149029B2B20934202FF
:1027500030934302409344025093450260934602F3
:10276000709347028093480290934902E701F983EE
:10277000E88369C2E034F105D0F4A0902A02B09059
:102780002B02C0902C02D0902D02E0902E02F090EF
:102790002F02B09130021091310221E030E040E090
:1027A00050E060E070E080E090E00E2F5DC0E03827
:1027B000F105E8F4A0903202B0903302C0903402E8
:1027C000D0903502E0903602F0903702B091380296
:1027D0001091390221E030E040E050E060E070E02C
:1027E00080E090E04F01D0E48D1A91083CC0E03CBD
:1027F000F105E8F4A0903A02B0903B02C0903C0290
:10280000D0903D02E0903E02F0903F02B091400235
:102810001091410221E030E040E050E060E070E0E3
:1028200080E090E04F01D0E88D1A91081CC0A09084
:102830004202B0904302C0904402D0904502E09022
:102840004602F0904702B09148021091490221E0FF
:1028500030E040E050E060E070E080E090E04F0168
:10286000D0EC8D1A9108082D0E94CB2CA222B32205
:10287000C422D522E622F722B823192321E030E032
:1028800040E050E060E070E080E090E0E034F1058E
:10289000A0F04F01E038F10520F4D0E48D1A910842
:1028A0000AC0E03CF10520F4D0E88D1A910803C07D
:1028B000D0EC8D1A9108082D01C00E2F0E94CB2C50
:1028C0000B2F0E94E42C09F0BDC1E03CF10548F457
:1028D000E038F10508F084C0E034F10508F042C0AA
:1028E00005C0EF3FF10509F008F4B8C021E030E081
:1028F00040E050E060E070E080E090E00E2F0E9449
:10290000CB2C20953095409550956095709580958D
:102910009095E0912A022E23E0912B023E23E09134
:102920002C024E23E0912D025E23E0912E026E23B5
:10293000E0912F027E23E09130028E23E09131025C
:102940009E2320932A0230932B0240932C02509313
:102950002D0260932E0270932F0280933002909389
:10296000310271C18F010054110921E030E040E0D3
:1029700050E060E070E080E090E00E94CB2C209579
:102980003095409550956095709580959095E09123
:1029900032022E23E09133023E23E09134024E2393
:1029A000E09135025E23E09136026E23E09137021A
:1029B0007E23E09138028E23E09139029E232093FA
:1029C00032023093330240933402509335026093C5
:1029D000360270933702809338029093390233C1E4
:1029E0008F010058110921E030E040E050E060E044
:1029F00070E080E090E00E94CB2C209530954095CF
:102A000050956095709580959095E0913A022E23AF
:102A1000E0913B023E23E0913C024E23E0913D02D7
:102A20005E23E0913E026E23E0913F027E23E0911F
:102A300040028E23E09141029E2320933A0230937C
:102A40003B0240933C0250933D0260933E027093E0
:102A50003F028093400290934102F5C08F01005CD9
:102A6000110921E030E040E050E060E070E080E0FB
:102A700090E00E94CB2C2095309540955095609524
:102A8000709580959095E09142022E23E09143024B
:102A90003E23E09144024E23E09145025E23E09103
:102AA00046026E23E09147027E23E09148028E2386
:102AB000E09149029E2320934202309343024093C7
:102AC00044025093450260934602709347028093FC
:102AD000480290934902B7C0EF3FF10511F008F0AA
:102AE000AEC0E034F105D0F4C0902A02D0902B02A1
:102AF000E0902C02F0902D0210912E02C0912F0236
:102B0000B0913002A091310221E030E040E050E08D
:102B100060E070E080E090E00E2F5DC0E038F105ED
:102B2000E8F4C0903202D0903302E0903402F0908A
:102B3000350210913602C0913702B0913802A0914F
:102B4000390221E030E040E050E060E070E080E0F9
:102B500090E05F01D0E4AD1AB1083CC0E03CF10563
:102B6000E8F4C0903A02D0903B02E0903C02F09032
:102B70003D0210913E02C0913F02B0914002A091EF
:102B8000410221E030E040E050E060E070E080E0B1
:102B900090E05F01D0E8AD1AB1081CC0C0904202BD
:102BA000D0904302E0904402F0904502109146021A
:102BB000C0914702B0914802A091490221E030E063
:102BC00040E050E060E070E080E090E05F01D0EC39
:102BD000AD1AB1080A2D0E94CB2CA22EAC20B32E28
:102BE000BD20C42ECE20D52EDF20E62EE122F72EEA
:102BF000FC22B823192F1A23E034F10570F0E038D5
:102C0000F10518F4E054F10908C0E03CF10518F4AE
:102C1000E058F10902C0E05CF10921E030E040E059
:102C200050E060E070E080E090E00E2F0E94CB2C3E
:102C3000A1E00B2F0E94E42C19F4A0E001C0A1E058
:102C4000A17001C0AC2F8A2FDF91CF911F910F91FE
:102C5000FF90EF90DF90CF90BF90AF909F908F90BC
:102C6000089590934F0280934E020895E0914E0292
:102C7000F0914F02309721F00190F081E02D0994FE
:102C800080E00895E0914E02F0914F02309721F0DC
:102C90000280F381E02D0994089520914C02309137
:102CA0004D022817390771F090934D0280934C0222
:102CB000E0914E02F0914F02309721F00680F781AB
:102CC000E02D0994089520914A0230914B02281773
:102CD000390771F090934B0280934A02E0914E02C3
:102CE000F0914F02309721F00084F185E02D099496
:102CF000089585B7806885BF85B7806885BF0895CA
:102D000081E008950C94801608950C9484160C9418
:102D100084160C9487160C9484160C9484160E94C6
:102D200079160E948D160C9438030E94AF220E94DF
:102D300056060E9469230E94C50E0E945C0D0C94E9
:102D400089167F928F929F92AF92BF92CF92DF921D
:102D5000EF92FF920F931F93CF93DF93CDB7DEB720
:102D60002A970FB6F894DEBF0FBECDBF0E9485161E
:102D70000E9484160E947E060E948216811111C054
:102D80008FEF89838A831B820E94B8228160782F0B
:102D90009D838C8349815A816B818D810E94571755
:102DA0004FC041E5A42E42E0B42E00E010E0702EAA
:102DB000802F0E9428066C01F501819091905F019F
:102DC000882699268114910431F40F5F1F4F0C302F
:102DD000110569F7D5CF8091FD0281FD0E94310672
:102DE00080E0EE24E394F12C94012E213F21232B4B
:102DF00009F18E837F82CE20DF2081E0CD2809F487
:102E000080E088870E94B8228160782F9A8789871E
:102E10004E815F8168858A850E945717000F111FB8
:102E2000F801EF5AFD4F80819181E826F926F18261
:102E3000E08206C08F5FEE0CFF1C8930A9F6C5CF7B
:102E40000E948F0D0E943D100E94361690915002F4
:102E50008917C9F00E943616809350022A960FB641
:102E6000F894DEBF0FBECDBFDF91CF911F910F91C0
:102E7000FF90EF90DF90CF90BF90AF909F908F909A
:102E80007F900C9417042A960FB6F894DEBF0FBEFD
:102E9000CDBFDF91CF911F910F91FF90EF90DF9009
:102EA000CF90BF90AF909F908F907F900895CF93D9
:102EB000DF93CDB7DEB72B970FB6F894DEBF0FBE0A
:102EC000CDBF4F83588769877A878B87DE0111963C
:102ED00086E0FD0111928A95E9F785E0FE013796BB
:102EE00001900D928A95E1F749815A816B817C812D
:102EF0008D819E810E94571D2B960FB6F894DEBFE0
:102F00000FBECDBFDF91CF910895FC0180819181EB
:102F10000E942B200895CF93882309F44DC0C82F19
:102F20008CEF8C0F813AF8F48C2F0E945925811177
:102F300043C06C2F80911701909118010E94E821E5
:102F4000882349F06C2F80911701909118010E94FD
:102F500020220E94B8206C2F8091170190911801B7
:102F60000E941E220CC080E28C0F883058F4C7707B
:102F700081E001C0880FCA95EAF70E946D20CF91C9
:102F80000C94B820EBE5EC0FE33040F4F0E0ED53A7
:102F9000FE4F808190E0CF910C944D16C85AC731F6
:102FA00058F4EC2FF0E0EE0FFF1FEB56FE4F808140
:102FB0009181CF910C946316CF910895882349F1A4
:102FC000682F8CEF860F813A38F480911701909129
:102FD00018010E9420220CC080E2860F883050F435
:102FE000677081E001C0880F6A95EAF70E9473203C
:102FF0000C94B8208BE5860F833020F480E090E0BD
:103000000C944D16685A673120F480E090E00C94DF
:1030100063160895CF93C82F0E948B17C93349F4C4
:103020002FEF87EE93E0215080409040E1F700C001
:1030300000008C2FCF910C94DE17882321F00E9482
:103040006D200C94B8200895882321F00E947320ED
:103050000C94B8200895CF92DF92EF92FF920F93D5
:103060001F93CF93DF937C01062FC72FFC0115819F
:1030700012951F70D281D1110E948A200E94632074
:10308000882399F0DD2389F08C2F807F803421F014
:1030900080E2800F883048F082E00E9402210E9486
:1030A000632091E0D82ED92601C0D12CCC2EC29419
:1030B0008FE0C8228C2D90E0FC01E659FF4F0C9464
:1030C000942C8C2F807FCF70882311F0C295C07F05
:1030D000DD2399F0CC2309F482C180E2800F88308F
:1030E00010F0011104C08C2F0E946D2003C08C2FA2
:1030F0000E947D200E94B82072C1802F0E94DE179E
:10310000CC2309F491C180E2800F883010F00111C6
:1031100004C08C2F0E94732003C08C2F0E94832038
:103120000E94B82081C18C2F807FCF70803211F037
:10313000C295C07F002319F00130C9F022C0DD2301
:1031400071F0112341F0113031F40E949D208C2B3D
:103150000E94A52069C10E949D208C2B1DC01123B7
:1031600019F0113009F460C10E94AE2025C0DD23A2
:1031700021F0163008F058C10EC0153008F054C1C7
:103180001BC0DD2361F0112331F0F701858180FF41
:1031900026C18F7085838C2F0E941D1845C1112375
:1031A00059F0093309F02CC1FFEF27EE83E0F1500D
:1031B00020408040E1F722C18C2F0E94241834C1A6
:1031C0008C2F86958695837019F0813061F02CC123
:1031D000DD2321F0802F9C2F937002C080E090E0CF
:1031E0000E944D1629C1DD2321F0802F9C2F937062
:1031F00002C080E090E00E9463161EC18C2F837095
:1032000009F045C0D11114C1402F42954695477031
:10321000440F440F602F6F70862F90E0A0E0B0E065
:10322000042E04C0880F991FAA1FBB1F0A94D2F74F
:1032300004FF10C00FE010E020E030E004C0000FF9
:10324000111F221F331F4A95D2F700951095209524
:10325000309503C000E010E09801C695C695C37094
:10326000BC01CD01602B712B822B932BC23049F016
:1032700058F4C13019F00E94A81EDAC00E94961EB0
:10328000D7C00E94BA1ED4C00E94941ED1C0DD23B4
:1032900019F08C2F817001C08695882309F4C8C06D
:1032A000402F429546954770440F440F602F6F7032
:1032B000862F90E0A0E0B0E0042E04C0880F991F94
:1032C000AA1FBB1F0A94D2F704FF10C00FE010E042
:1032D00020E030E004C0000F111F221F331F4A9569
:1032E000D2F7009510952095309503C000E010E0CE
:1032F0009801C695C695C370BC01CD01602B712B9A
:10330000822B932BC23049F058F4C13019F00E943F
:103310006D1F8EC00E945B1F8BC00E947F1F88C0E4
:103320000E94CE1E85C0CF70DD2339F08C2F0E9405
:10333000F41E802F0E941D187BC0802F0E9424182D
:103340008C2F0E94151F74C0023F01F128F4003F2A
:1033500041F0013FA1F03FC0033FF9F0043F39F1D4
:103360003AC0DD2341F0153008F05EC08C2F8F711C
:103370000E943A1F59C0163008F056C0F7CFDD231F
:1033800039F08C2F8F710E94F41E4EC0DD23C9F3DB
:103390008C2F8F710E94151F47C0DD2329F08C2FC1
:1033A0008F710E94DF1E40C00E94DA1E3DC0DD23E7
:1033B00049F0CF718C2F0E94F41E63E08C2F0E9485
:1033C000ED2032C081E00E940221123068F182E0DB
:1033D0000E94022129C0DD2331F0112391F2802FB8
:1033E0000E948B1721C0112399F2093349F49FEFF2
:1033F000E7EEF3E09150E040F040E1F700C000005C
:10340000802F0E94DE1710C04C2F4F70602FC70115
:103410000E9420040E94051E0FC04C2F4F70602F89
:10342000C7010E94230408C088EF8C0D843020F46B
:103430000E9436160E941704DD20C9F00E945F200A
:1034400080FD15C0F70112820E9459200E94F41ECF
:10345000C7010E94581A0E945920DF91CF911F91F5
:103460000F91FF90EF90DF90CF900C94151FDF919C
:10347000CF911F910F91FF90EF90DF90CF90089523
:103480000F931F93CF93DF93EC01688179818A8139
:103490000E9436208C010E94911F0E94821EB8015A
:1034A000CE010E942B18DF91CF911F910F910895AB
:1034B000CF93DF93EC01988189812B813C81232B71
:1034C00031F08F3F31F481E09F3F19F403C081E078
:1034D00001C080E080FD19C0CE010E94B6038111B9
:1034E0000CC00E946320882381F08A81882369F0C0
:1034F00082E0DF91CF910C940221CE010E94401A0C
:10350000CE01DF91CF910C948F03DF91CF9108957D
:103510000E948A200E949A200E94B82080E090E0B9
:103520000E944D1680E090E00C9463168091170184
:10353000909118010E9422220C94881A0E947A20ED
:103540000C94961AE92FE295EF704E2F50E0FA0195
:103550003297EE30F105B0F4E658FF4F0C94942CFE
:10356000803F91F018F4883E68F40EC0843F51F417
:103570000BC0883E48F0813F29F406C093FB8827A2
:1035800080F9089580E0089581E008950E942B203D
:103590000E94A21A0895CF93DF9300D000D01F920B
:1035A000CDB7DEB70F900F900F900F900F90DF9177
:1035B000CF910895CF93DF9300D000D000D0CDB746
:1035C000DEB726960FB6F894DEBF0FBECDBFDF91F3
:1035D000CF9108951F93CF93DF93C0916A0216E0B5
:1035E00080916B02C81799F0D0E01C9FF0011D9FDD
:1035F000F00D1124E459FD4F4081518162817381A6
:10360000848195810E94DA1A2196C770E9CFDF91F3
:10361000CF911F91089540919C0250919D0260911D
:103620009E0270919F028091A0029091A1020C9441
:10363000DA1A0F931F93CF93DF938091A1028295A3
:103640008F7009F05DC080919E02882309F458C0F4
:1036500080916A0210916B0260919C0270919D02B0
:10366000C0919F02D091A00291E06F3F09F090E0DD
:10367000292F06E0811709F443C0209721F07F3FEE
:1036800021F030E003C031E001C0322F90E030FD86
:1036900034C0089FF001099FF00D1124DF01A459E7
:1036A000BD4F11963C911197371327C03C913613AB
:1036B00024C012963C91129731111FC013964D9160
:1036C0005C9114974C1B5D0B483C5105B0F4809104
:1036D000A1028F7080618093A102EF58FD4F80811D
:1036E0008F70806180838CE992E00E94581ADF918C
:1036F000CF911F910F910C94EA1A01968770BACF5F
:10370000DF91CF911F910F9108959F92AF92BF9239
:10371000CF92DF92EF92FF920F931F93CF93DF939D
:10372000CDB7DEB761970FB6F894DEBF0FBECDBF41
:103730008C0185E0F801DE011D9601900D928A95BD
:10374000E1F7F80140815181E28090919C02609103
:103750009D0220919F023091A0022115310531F088
:103760006F3F31F481E09F3F19F403C081E001C055
:1037700080E0F82FF1709F2E80FD46C1F801A380F4
:10378000B4808CE9C82E82E0D82EF0909E02F5011C
:10379000E21BF30BFF2009F4DFC08091A102E83C9B
:1037A000F10508F09BC0282F207F09F052C0561366
:1037B00013C0491311C0FE2CE1100EC08F70806140
:1037C0008093A1020E940B1BC6010E94581A80918F
:1037D000A102F801858358C1AB2831F05F3F31F475
:1037E00081E04F3F19F403C081E001C080E080FD1B
:1037F00003C081E08E2502C080E090E0F82FF170D8
:10380000FF2E80FF1CC080916A0220916B0236E07F
:10381000821709F417C190E0389FF001399FF00D2D
:103820001124E459FD4F6181561306C0608146138F
:1038300003C06281E61203C001968770E9CFFE2CB7
:10384000EE2009F421C18091A10281608093A10240
:103850005AC0561306C0491304C0E11002C0F80153
:103860009FC04D875E878D859E850E94C61A8823DE
:1038700079F1EE2069F12091A102822F82958F705B
:1038800090E0029774F080919C0290919D0298873D
:103890008F831986BB86AA862C87CE0107960E9445
:1038A000581A86E0F801ACE9B2E001900D928A95D1
:1038B000E1F70E94191B0E940B1B0DC0561729F13E
:1038C0004D875E878D859E850E94C61A81112CC00A
:1038D000C8010E94581AFF24F394D6C0282F207FD5
:1038E00069F77A2DB98AA88A6E2D89890E94CB1A28
:1038F0008CE992E00E94581A86E0F60111928A95AE
:10390000E9F70E940B1BF12CBFC04913D9CFE1107E
:10391000D7CFF8018583C8010E94581A86E0F601C6
:1039200011928A95E9F7B0C0EE2091F22091A102A0
:10393000822F82958F7090E002970CF4B2CF809125
:103940009C0290919D029A8389831B82BD82AC82E6
:103950002E83CE010196A3CFE83CF10508F047C0C5
:10396000FE2CEE2009F4B4CF561330C049132EC0FC
:103970002091A10220FD21C0822F82958F70482FB7
:1039800050E041155105C9F0F80125834F3051052C
:1039900041F08F5F982F9295907F822F8F70892BA7
:1039A0008583C8010E94581A86E0F801ACE9B2E0AC
:1039B00001900D928A95E1F742C086E0F801ACE9EA
:1039C000B2E001900D928A95E1F75EC04D875E8767
:1039D0008D859E850E94C61A811163CF8091A102B8
:1039E00081608093A102C8010E94581A4DC07A2DAF
:1039F000B98AA88A6E2D89890E94CB1A86E0F601C1
:103A000011928A95E9F71BC0EE2009F461CF4D872A
:103A10005E878D859E850E94C61AF82E882309F43C
:103A200057CF86E0F801ACE9B2E001900D928A959B
:103A3000E1F78CE992E00E9485170E94191B0E9411
:103A40000B1B22C04D875E878D859E850E942B2093
:103A5000292F22952F70223028F49F7039F0811180
:103A600005C00BC0243028F49F7049F4805E883074
:103A700020F0C8010E94581A9F2CF92C05C0F801AB
:103A80009581907F99F7F9CF8F2D61960FB6F894B5
:103A9000DEBF0FBECDBFDF91CF911F910F91FF9081
:103AA000EF90DF90CF90BF90AF909F9008951F93BD
:103AB000CF93DF93CDB7DEB72C970FB6F894DEBF68
:103AC0000FBECDBF4F83588769877A878B879C87C6
:103AD000CE0107960E94851B8823D1F09F8188859F
:103AE0002A853B85232B31F08F3F31F481E09F3FC6
:103AF00019F403C081E001C080E080FD47C04F8120
:103B0000588569857A858B859C850E94DA1A3EC026
:103B100086E0FE013796DE01119601900D928A959E
:103B2000E1F7FF81E8856A857B856115710531F0D4
:103B3000EF3F31F481E0FF3F19F403C081E001C0A1
:103B400080E080FD23C020916B0230E0C901019626
:103B50008770992740916A0250E084179507F1F128
:103B6000F983EA837D836C8396E0929FD001939FD3
:103B7000B00D1124A459BD4FFE01319601900D9254
:103B80009A95E1F780936B020E94EA1A16E0809101
:103B90006A0290916B02891771F1189FC00111247C
:103BA00084599D4F0E94851B882329F1E0916A0268
:103BB0001E9FF0011124E459FD4F40815181628123
:103BC0007381848195810E94DA1A80916A0290E063
:103BD00001968770992780936A02D9CF0E949E1A16
:103BE00010926B0210926A02ECE9F2E086E0DF01CB
:103BF0001D928A95E9F72C960FB6F894DEBF0FBE9A
:103C0000CDBFDF91CF911F910895EF92FF920F9357
:103C10001F93CF93DF938C01892B09F46CC0F12C97
:103C2000EE24E394E8012196F8018491843740F46E
:103C3000843008F051C0813081F0823019F15BC0CE
:103C4000853709F444C0A8F19CE7980F903708F035
:103C500052C08F770E94DE1741C00E5F1F4FFE01DA
:103C6000849190E2980F983050F48770FE2D01C037
:103C7000FF0F8A95EAF78F2F0E948D2014C00E94B3
:103C80008B172DC00E5F1F4FFE01849190E2980F9D
:103C9000983060F48770FE2D01C0FF0F8A95EAF717
:103CA0008F2F0E9493200E94B82019C00E94DE1717
:103CB00016C00E5F1F4FFE01C491CC2381F08FE927
:103CC0009FE00197F1F700C00000C150F6CF0E5FF2
:103CD0001F4FFE01F49003C00E948B178E018F2DA1
:103CE000882309F49FCFEFE9FFE03197F1F700C097
:103CF00000008150F5CFDF91CF911F910F91FF9080
:103D0000EF900895089508950C94831E0C94841EDA
:103D10000E94861E6093EC027093ED028093EE0287
:103D20009093EF020C94881A0C94881E0F931F93A3
:103D30000091EC021091ED022091EE023091EF0221
:103D4000602B712B822B932B1F910F910C94881E4B
:103D50000F931F930091EC021091ED022091EE025F
:103D60003091EF0260237123822393231F910F91DF
:103D70000C94881E0F931F930091EC021091ED029A
:103D80002091EE023091EF0260277127822793275E
:103D90001F910F910C94881E0C94831E0E94CC1EC0
:103DA0006093E8027093E9028093EA029093EB0239
:103DB0000C94881A60E070E0CB010C94CE1E0F9337
:103DC0001F9341E050E060E070E08A019B0104C075
:103DD000000F111F221F331F8A95D2F7C901B801A6
:103DE0001F910F910C94CE1E0F931F9341E050E052
:103DF00060E070E004C0440F551F661F771F8A956E
:103E0000D2F78091E8029091E902A091EA02B09184
:103E1000EB028A019B01082B192B2A2B3B2BC90192
:103E2000B8011F910F910C94CE1E0F931F9341E088
:103E300050E060E070E004C0440F551F661F771F1C
:103E40008A95D2F740955095609570958091E802DB
:103E50009091E902A091EA02B091EB028A019B01E4
:103E6000082319232A233B23C901B8011F910F916D
:103E70000C94CE1E0F931F9341E050E060E070E081
:103E800004C0440F551F661F771F8A95D2F7809193
:103E9000E8029091E902A091EA02B091EB028A0156
:103EA0009B01082719272A273B27C901B8011F9121
:103EB0000F910C94CE1E0F931F930091E802109166
:103EC000E9022091EA023091EB02602B712B822BE8
:103ED000932B1F910F910C94CE1E0F931F93009163
:103EE000E8021091E9022091EA023091EB0260238E
:103EF0007123822393231F910F910C94CE1E0F9355
:103F00001F930091E8021091E9022091EA0230919A
:103F1000EB0260277127822793271F910F910C9442
:103F2000CE1E089529E0929F800D1124E82FE6957A
:103F3000E695E695877051E001C0550F8A95EAF73E
:103F400085E0E89FF0011124EE55FD4F20E030E0C0
:103F500070E04081CB01022E02C0969587950A94AD
:103F6000E2F78170819584278523842781932F5FD1
:103F70003F4F2530310569F7089529E0929F800D64
:103F80001124682F669566956695982F977085E041
:103F9000689FB001112440E050E080E0FB01E40F95
:103FA000F51FEE55FD4F208130E0092E02C03695F9
:103FB00027950A94E2F721703327042E01C0220FBF
:103FC0000A94EAF7822B4F5F5F4F4530510531F776
:103FD0000895BF92CF92DF92EF92FF920F931F93BB
:103FE000CF93DF938C01C090E802D090E902E0907B
:103FF000EA02F090EB028091EC029091ED02A09128
:10400000EE02B091EF02C82AD92AEA2AFB2ACFE1B0
:10401000D0E0D701C6010C2E04C0B695A7959795A0
:1040200087950A94D2F780FD04C0219790F7B12CB0
:1040300007C0BC2EB8018C2F0E943F040197A9F342
:104040008B2DDF91CF911F910F91FF90EF90DF901B
:10405000CF90BF900895CF93DF93EC010E94E91FAA
:10406000BE010E943F04DF91CF9108951F93CF932B
:10407000DF93EB0190916902992321F0CB010E941B
:104080002B2013C0882349F0CB010E94E91F182F71
:10409000682FCE010E94921F04C0CB010E94BD1F59
:1040A000182FBE01812F0E943F04DF91CF911F91F5
:1040B00008958091F0028595859585950895809164
:1040C000F002877008959091F002977081E009F4F2
:1040D00080E008958091FC0208959091FC02892B64
:1040E0008093FC02089580959091FC02892380932F
:1040F000FC0208951092FC0208959091FB02892B16
:104100008093FB02089580959091FB028923809310
:10411000FB0208951092FB0208959091FA02892BF8
:104120008093FA02089580959091FA0289238093F2
:10413000FA0208951092FA0208958091F10208950A
:1041400008950C94A0200C94A1209091F10298174E
:1041500021F08093F1020C94A32008958091F10244
:10416000882329F01092F10280E00C94A320089596
:10417000E0911701F09118018091FC028083E09199
:104180001701F091180190818091FB02892B8083A7
:10419000E0911701F091180190818091FA02892B2A
:1041A00080838091F102882381F0E0911701F091E2
:1041B00018019081892B80838091170190911801BB
:1041C0000E94DC2181110E94AE2080911701909104
:1041D00018010C9442160C94A02098E0899F90013D
:1041E0001124262B2093F0020E94F41E8091F002ED
:1041F0008595859585950C94EB201092F00280E0D2
:104200000C94EB202091F002809582238093F002A1
:10421000982F977079F430E0482F082E000C550B3A
:104220002417350739F08595859585950E94151FCA
:104230000C94FD20089580E090E00E94642D21E020
:104240008C3E9E4F09F020E0822F089582E090E09E
:104250000C94562D682F82E090E00C946A2D83E038
:1042600090E00C94562D682F83E090E00C946A2D1A
:10427000CF9384E090E00E94562DC82F81E290E019
:104280000E94562D2C2F30E0A901582BCA01CF9146
:104290000895CF93C92F682F84E090E00E946A2D83
:1042A0006C2F81E290E0CF910C946A2D86E090E033
:1042B0000C94562D682F86E090E00C946A2DAB018B
:1042C000BC018FE090E00C947C2DAB01BC0183E13C
:1042D00090E00C947C2D60E070E0CB010C946521A3
:1042E00060E070E0CB010E945F210C946B216CEECA
:1042F0007EEF80E090E00E94882D60E082E090E018
:104300000E946A2D60E083E090E00E946A2D109286
:10431000EC021092ED021092EE021092EF0260E0B9
:1043200084E090E00E946A2D60E081E290E00E94CB
:104330006A2D60E085E090E00E946A2D60E086E0F2
:1043400090E00E946A2D6FEF87E090E00E946A2D56
:1043500040E050E0BA0188E090E00E947C2D60E0EF
:104360008DE090E00E946A2D40E050E0BA0188E1C3
:1043700090E00E947C2D60E087E190E00E946A2D31
:1043800040E050E0BA018CE190E00E947C2D60E0BA
:1043900080E290E00E946A2D40E050E0BA0188E19E
:1043A00090E00E947C2D0C9470210C947721682F52
:1043B0008EE090E00C946A2DFC01329697E080E04C
:1043C000915029F021912223D9F38F5FF9CF0895DD
:1043D000662349F0FC01329608962191621729F074
:1043E000E817F907D1F780E0089581E008959C016E
:1043F000FC0132969FEF80E04191461789F09F3F84
:1044000019F4411101C0982F8F5F8630A9F79F3FA3
:1044100039F0F901E90FF11D97FDFA9562830895CE
:1044200008959C012A5F3F4FFC014281461301C061
:104430001282019682179307B9F708950C94F72119
:104440000C941122029626E0FC0111922A95E9F7BC
:10445000089508950C9429220C942922CF930E9448
:104460002C220E947E060E942A22C0E08C2F0E94ED
:104470002806892B29F4CF5FCC30C1F780E001C03A
:1044800081E0CF9108950C9429220C9443220E943C
:10449000452280917A03843061F11092FE0220E47B
:1044A00088E190E00FB6F894A895809360000FBE65
:1044B0002093600080E00E94D40F80E00E941704E7
:1044C0000E94452283B7817F846083BF83B7816068
:1044D00083BF7894889583B78E7F83BF0FB6F89497
:1044E000A8958091600088618093600010926000C0
:1044F0000FBE08950C9429220E949E1A0E94C50E98
:104500000E9436160E9417040C947A221F920F9272
:104510000FB60F9211248F939F93AF93BF93809107
:10452000FE02811113C08091700390917103A091DC
:104530007203B09173034196A11DB11D8093700366
:1045400090937103A0937203B0937303BF91AF91E3
:104550009F918F910F900FBE0F901F90189582E042
:1045600084BD93E095BD9AEF97BD80936E0008954A
:104570002FB7F8948091700390917103A09172030A
:10458000B09173032FBF08959C014FB7F8948091A9
:10459000700390917103A0917203B09173034FBFA8
:1045A000821B930B089578941F920F920FB60F926F
:1045B00011248F939F93AF93BF9380917003909139
:1045C0007103A0917203B09173030196A11DB11DF7
:1045D0008093700390937103A0937203B09373035D
:1045E000BF91AF919F918F910F900FBE0F901F9031
:1045F000189581E08093E00080E28093D8001092CB
:10460000C9008FE19EE40197F1F700C0000087E048
:1046100090EBDC018093830390938403A093850344
:10462000B09386039CE088E10FB6F894A895809338
:1046300060000FBE90936000FFCFAF92BF92CF9209
:10464000DF92EF92FF920F931F93CF93C0E0CC24A1
:10465000C394D12CE82EF12C8C2F0E9428065C01EB
:1046600000E010E0C601002E02C0880F991F0A94D6
:10467000E2F78A219B21892B31F40F5F1F4F09300C
:10468000110581F70AC0602F7C2F80E00E9424046E
:10469000E816F90691F781E004C0CF5FCC30E1F66F
:1046A00080E0CF911F910F91FF90EF90DF90CF901E
:1046B000BF90AF900895CF93C82F8CE20E941D2326
:1046C000882321F08C2FCF910C941D2380E0CF9173
:1046D0000895CF930E941B21811102C00E94D52111
:1046E000C5E6C15049F00E947E068FE39CE9019720
:1046F000F1F700C00000F5CF89E20E945B23811131
:104700002AC18AE20E945B2381110E94D52185E0A3
:104710000E945B2381110E94F9220E94262180932E
:10472000FD0287E00E945B238823A9F18BE10E94B0
:104730005B23882351F08091FD0281FB222720F921
:1047400091E0922790FB81F90EC08EE00E945B23DE
:10475000882361F08091FD0282FB222720F991E0FD
:10476000922790FB82F98093FD0215C080E10E94A0
:104770005B239091FD02882341F093FB222720F9CF
:1047800081E0822780FB93F904C0892F809580FB0C
:1047900090F99093FD028091FD020E942A210E94CF
:1047A0003821909375038093740380EE0E945B23FD
:1047B000882341F080917403982F909590FB80F9A5
:1047C0008093740389E30E945B23882359F08091CE
:1047D000740381FB222720F991E0922790FB81F955
:1047E0008093740382EE0E945B23882359F08091AA
:1047F000740382FB222720F991E0922790FB82F933
:104800008093740386EE0E945B23882359F0809185
:10481000740383FB222720F991E0922790FB83F910
:104820008093740383EE0E945B23882359F0809168
:10483000740384FB222720F991E0922790FB84F9EE
:104840008093740385E30E945B23882359F0809151
:10485000740385FB222720F991E0922790FB85F9CC
:104860008093740381E30E945B23882359F0809135
:10487000740386FB222720F991E0922790FB86F9AA
:104880008093740381E10E945B23882359F0809117
:10489000740387FB222720F991E0922790FB87F988
:1048A0008093740380917403909175030E94492151
:1048B00087E20E945B23C82F8EE10E945B23811157
:1048C000C2608FE10E945B238111C46080E20E947C
:1048D0005B238111C86081E20E945B238111C0616A
:1048E00082E20E945B238111C06283E20E945B230B
:1048F0008111C06484E20E945B23882311F0C068A8
:1049000002C0CC2329F08C2F0E9433216C2F03C0CE
:104910000E942F21682F70E080E090E00E94941E9A
:104920006091E8027091E9028091EA029091EB02B5
:104930000E94CC1E8FE00E945B23882319F081E047
:104940000E94D72185E10E945B23882321F080E02B
:10495000CF910C94D721CF9108950F931F9341E0ED
:1049600050E060E070E08A019B0104C0000F111F5D
:10497000221F331F8A95D2F7C901B8010E94941EE5
:104980001F910F910C949E1A8B3109F468C058F551
:104990008B3009F486C078F4863009F445C020F4E1
:1049A000853009F44BC07FC0873009F44AC0883095
:1049B00009F477C078C0803109F464C068F48E309F
:1049C00009F071C08091FD0282FB222720F991E05D
:1049D000922790FB82F94CC0863109F462C089317C
:1049E00009F45FC060C08A32E1F060F4873209F4F4
:1049F00055C028F48E3108F456C08D5150C089320C
:104A0000E9F051C0833450F48A3308F045C085334F
:104A100009F444C0883309F444C045C08334F1F13B
:104A200042C00E94D5213DC08091FD02817F8E7FD2
:104A30008093FD0281E08093FF0208950E94A70306
:104A400030C08091FD02982F9095917090FB80F975
:104A50008093FD02911125C0897F877F10C08091CE
:104A6000FD0281FB222720F991E0922790FB81F93A
:104A70008093FD029923A9F08091FD0281608093CB
:104A8000FD020FC08091FD0283FB222720F991E0F7
:104A9000922790FB83F9ECCF895301C080E00E94FC
:104AA000AD2481E0089580E0089580E008950C949D
:104AB0005525CF93C82F8091FF02882319F08130AC
:104AC00031F02BC00E946A20823249F504C00E9456
:104AD0006A20823261F48C2F0E945725811104C014
:104AE0008C2F0E94C42417C081E090E014C08C2F4A
:104AF0000E94552581110EC0C43149F018F4CB3005
:104B000049F00FC0C93219F0C83321F00AC0109221
:104B1000FF0207C081E0817006C01092FF0280E0B2
:104B200002C080E0F8CFCF910895809108030895E6
:104B30000895CF93DF9300D01F92CDB7DEB7909149
:104B40007A03943019F589837B836A8382E08093AA
:104B5000E9008FEF9091E800815095FD06C095ED3A
:104B60009A95F1F700008111F5CF8091E80085FF5B
:104B70000DC040E050E063E070E0CE0101960E947D
:104B800090278091E8008E778093E8000F900F9037
:104B90000F90DF91CF910895BC0184E00C9499258A
:104BA000BC0183E00C949925CF93DF9321E02093FF
:104BB000E9002FEF3091E800215035FD06C035EDBA
:104BC0003A95F1F700002111F5CF2091E80025FF7B
:104BD00014C0EC0140E050E068E070E00E949027D3
:104BE0008091E8008E778093E80088E0FE01A0E0E5
:104BF000B3E001900D928A95E1F7DF91CF9108958E
:104C000080917903811109C00E9421290E947E2987
:104C10008091E20084608093E2000895109279030D
:104C20000895089508950C947C2242E061EC81E09F
:104C30000E949A2842E261EC82E00C949A288091CA
:104C40007C03833009F460C030F4813071F082302D
:104C500009F499C008958A3009F485C08B3009F4AD
:104C60006BC0893009F0A7C020C080917B03813AD6
:104C700009F0A1C08091E800877F8093E8008091CF
:104C80007F0390918003892B21F468E080E093E01A
:104C900003C060E080E090E070E00E94DB2780913C
:104CA000E8008B778093E800089580917B03813240
:104CB00009F081C080917F0390918003029708F0F2
:104CC0007AC08091E800877F8093E8008091E800B7
:104CD00082FD05C080917A038111F8CF6CC02091CC
:104CE000F3008091F20090E0922B029729F48091DA
:104CF000F1008B7F813021F48091F10080930803D3
:104D00008091E8008B7753C080917B03813A09F052
:104D100052C080917F0390918003892B09F04BC092
:104D20008091E800877F8093E8008091E80080FF11
:104D3000FCCF8091230136C080917B038132D9F56D
:104D400080917F0390918003892BA9F58091E800E1
:104D5000877F8093E8000E94CF2880917D03809315
:104D600023010C949E1A80917B03813221F580915E
:104D7000E800877F8093E8000E94CF2880917E031F
:104D800080930903089580917B03813AA1F4809177
:104D9000E800877F8093E8008091E80080FFFCCFE7
:104DA000809109038093F1008091E8008E778093D1
:104DB000E8000C94CF28089584B7877F84BF0FB68E
:104DC000F894A895809160008861809360001092AB
:104DD00060000FBE90E080E80FB6F8948093610009
:104DE000909361000FBE0E948F160E9421290E949D
:104DF0007E298091E20084608093E20078940E9492
:104E0000132C0E94951689E191E00E943116809141
:104E10007A03853069F40E944722809178038823C1
:104E2000B1F30E942E22882391F30E947A27EFCFBC
:104E30000E94A1160E9485160E948416E8CF0C9449
:104E40002127292F332723303105C9F060F4213081
:104E5000310581F02230310509F044C08BE390E048
:104E60002AE135E043C021323105E1F0223231053B
:104E700049F138C082E190E025E535E037C0992757
:104E80008130910549F028F0029761F5EEEEF4E0EB
:104E900005C0E6E1F5E002C0EAE0F5E0849190E0CB
:104EA0009F0124C06115710541F061307105D1F495
:104EB00089E090E025E435E019C089E090E02CE23B
:104EC00035E014C06115710541F06130710551F490
:104ED00082E390E027E635E009C080E490E029E92C
:104EE00035E004C080E090E020E030E0FA0131835A
:104EF0002083089580E189BD82E189BD09B400FE67
:104F0000FDCF8091D8008F7D8093D8008091E00004
:104F100082608093E0008091E00081FDFCCF0895E5
:104F2000CF92DF92EF92FF920F931F93CF93DF9375
:104F3000EC018B017A010E94EE28811133C0E1144B
:104F4000F10439F0F70180819181081B190BC80F1A
:104F5000D91FC12CD12C0115110519F18091E80040
:104F600085FD16C08091E8008E778093E800E114FB
:104F7000F10449F0F70180819181C80ED91ED182D8
:104F8000C08285E00FC00E94EE28882321F30AC06A
:104F900089918093F10001501109FFEFCF1ADF0AC8
:104FA000DACF80E0DF91CF911F910F91FF90EF90CA
:104FB000DF90CF90089520918103309182032617CE
:104FC000370748F06115710539F42091E8002E7714
:104FD0002093E80001C0B901FC0120E061157105D2
:104FE00079F180917A038823F1F18530F1F1809194
:104FF000E80083FD3CC08091E80082FD2EC08091D6
:10500000E80080FFEBCF2091F3008091F20090E068
:10501000922B6115710551F08830910538F421917A
:105020002093F100615071090196F3CF21E00897B8
:1050300009F020E08091E8008E778093E800CECFE1
:105040002111CFCF0AC080917A03882361F0853087
:1050500061F08091E80083FD0AC08091E80082FF42
:10506000F2CF80E0089582E0089583E0089581E022
:10507000089520918103309182032617370748F065
:105080006115710539F42091E8002E772093E8002E
:1050900001C0B901FC0120E06115710591F1809119
:1050A0007A03882309F440C0853009F43FC0809119
:1050B000E80083FD3DC08091E80082FD2FC0809113
:1050C000E80080FFE9CF2091F3008091F20090E0AA
:1050D000922B6115710559F08830910540F42491A7
:1050E0002093F1003196615071090196F2CF21E0D1
:1050F000089709F020E08091E8008E778093E8001F
:10510000CBCF2111CCCF0AC080917A03882361F0E4
:10511000853061F08091E80083FD0AC08091E8004D
:1051200082FFF2CF80E0089582E0089583E0089541
:1051300081E00895982F973068F59093E9009817CB
:1051400039F07091EC002091ED005091F00003C017
:10515000242F762F50E021FD02C09F5FECCF3091CD
:10516000EB003E7F3093EB003091ED003D7F3093BC
:10517000ED003091EB0031603093EB007093EC0068
:105180002093ED005093F0002091EE0027FDE5CF35
:1051900080E008958F708093E90081E00895809108
:1051A0007B0387FF11C08091E80082FD05C08091DC
:1051B0007A038111F8CF11C08091E8008B770BC082
:1051C00080917A03882349F08091E80080FFF8CF2E
:1051D0008091E8008E778093E80008952091E400A4
:1051E0003091E50095E64091EC00842F817040FFFE
:1051F00023C08091E80080FD1DC080917A03882340
:1052000099F0853099F08091EB0085FD11C04091B7
:10521000E4005091E5002417350729F3915011F06F
:105220009A01E1CF84E0089582E0089583E0089533
:1052300081E0089580E008954091E80042FFDDCFCD
:1052400008950E948F290E949729E0EEF0E0808166
:1052500081608083E8EDF0E080818F77808319BCE6
:10526000A7EDB0E08C918E7F8C9380818F7E8083C0
:105270001092790308950F931F93CF93DF930E94A9
:105280008F290E949729C8EDD0E088818F77888385
:1052900088818068888388818F7D888319BC10927B
:1052A0007A0310927603109278031092770300EE3F
:1052B00010E0F80180818B7F808388818160888302
:1052C00042E060E080E00E949A28E1EEF0E0808118
:1052D0008E7F8083E2EEF0E0808181608083808138
:1052E00088608083F80180818E7F808388818061DF
:1052F0008883DF91CF911F910F910895E8EDF0E041
:1053000080818F7E8083E7EDF0E080818160808303
:1053100084E082BF81E0809379030C943B29E8ED1F
:10532000F0E080818E7F80831092E20008951092D9
:10533000DA001092E10008951F920F920FB60F92BB
:1053400011242F933F934F935F936F937F938F938A
:105350009F93AF93BF93EF93FF938091E10082FF00
:105360000BC08091E20082FF07C08091E1008B7F3B
:105370008093E1000E94122C8091DA0080FF1FC010
:105380008091D80080FF1BC08091DA008E7F8093CF
:10539000DA008091D90080FF0DC080E189BD82E1F3
:1053A00089BD09B400FEFDCF81E080937A030E949D
:1053B000002605C019BC10927A030E940E26809127
:1053C000E10080FF19C08091E20080FF15C080914C
:1053D000E2008E7F8093E2008091E2008061809302
:1053E000E2008091D80080628093D80019BC85E0EB
:1053F00080937A030E9412268091E10084FF30C0DE
:105400008091E20084FF2CC080E189BD82E189BDEA
:1054100009B400FEFDCF8091D8008F7D8093D80025
:105420008091E1008F7E8093E1008091E2008F7E89
:105430008093E2008091E20081608093E20080919D
:105440007603882311F084E007C08091E30087FD94
:1054500002C081E001C083E080937A030E9413269A
:105460008091E10083FF29C08091E20083FF25C085
:105470008091E100877F8093E10082E080937A034E
:10548000109276038091E1008E7F8093E1008091FD
:10549000E2008E7F8093E2008091E2008061809341
:1054A000E20042E060E080E00E949A288091F000F3
:1054B00088608093F0000E941126FF91EF91BF91C8
:1054C000AF919F918F917F916F915F914F913F919C
:1054D0002F910F900FBE0F901F9018951F920F9253
:1054E0000FB60F9211242F933F934F935F936F93B7
:1054F0007F938F939F93AF93BF93CF93DF93EF935C
:10550000FF93C091E900CF708091EC00D82FD1704B
:1055100080FDD0E81092E9008091F000877F8093B1
:10552000F00078940E94B22A1092E9008091F00075
:1055300088608093F000CD2BCF70C093E900FF917D
:10554000EF91DF91CF91BF91AF919F918F917F911B
:105550006F915F914F913F912F910F900FBE0F90E0
:105560001F9018951F93CF93DF93CDB7DEB7AA97FF
:105570000FB6F894DEBF0FBECDBFEBE7F3E080912E
:10558000F100819323E0E338F207C9F70E941F2658
:105590008091E80083FF2EC180917B0390917C0372
:1055A000492F50E04A30510508F024C1FA01E8576C
:1055B000FF4F0C94942C803821F0823809F01AC1E6
:1055C00008C08091770390917803992389F08260D5
:1055D0000FC080917F038F70873008F00BC18093DC
:1055E000E9008091EB0085FB882780F91092E900A3
:1055F0009091E800977F9093E8008093F1001092DB
:10560000F100D1C0282F2D7F09F0F4C0882319F0B4
:10561000823061F0EFC080917D03813009F0EAC0F3
:10562000933009F080E0809378032EC080917D0351
:1056300081112AC080917F038F702FEF280F2630B1
:1056400008F0D8C08093E9002091EB0020FF1CC037
:10565000933021F48091EB00806214C09091EB00B4
:1056600090619093EB0021E030E0A90102C0440F6B
:10567000551F8A95E2F74093EA001092EA00809164
:10568000EB0088608093EB001092E9008091E800C5
:10569000877F8093E8000E94CF28ACC08111AAC008
:1056A00010917D031F778091E3008078812B809398
:1056B000E3008091E800877F8093E8000E94CF2874
:1056C0008091E80080FFFCCF8091E30080688093A8
:1056D000E300111102C082E001C083E080937A03ED
:1056E00089C08058823008F085C080917D039091F8
:1056F0007E038C3D53E0950779F583E08A838AE247
:1057000089834FB7F894DE01139620E03EE051E222
:10571000E32FF0E050935700E49120FF03C0E2959F
:10572000EF703F5FEF708E2F90E0EA3010F0C79679
:1057300001C0C0968D939D932F5F243149F74FBFD1
:105740008091E800877F8093E8006AE270E0CE01F4
:1057500001960E94DB2716C060917F037091800341
:10576000AE014F5F5F4F0E941F27BC01892B09F4D8
:1057700041C09091E800977F9093E80089819A81D9
:105780000E9439288091E8008B778093E80032C02E
:10579000803881F58091E800877F8093E8008091D0
:1057A00076038093F1008091E8008E7772CF8111AB
:1057B00021C080917D0390917E0399270297D4F4B4
:1057C0008091E800877F8093E80080917D0380933B
:1057D00076030E94CF2880917603811106C08091C4
:1057E000E30087FD02C081E001C084E080937A037A
:1057F0000E9415268091E80083FF0AC08091E8008E
:10580000877F8093E8008091EB0080628093EB00BB
:10581000AA960FB6F894DEBF0FBECDBFDF91CF9131
:105820001F9108950895CF9380917A038823A1F062
:10583000C091E900CF709091EC00892F817090FDAC
:1058400080E8C82B1092E9008091E80083FD0E9457
:10585000B22ACF70C093E900CF910895DB018F93F6
:105860009F930E94B82CBF91AF91A29F800D911D74
:10587000A39F900DB29F900D11240895991B79E07C
:1058800004C0991F961708F0961B881F7A95C9F7D0
:1058900080950895AA1BBB1B51E107C0AA1FBB1F1F
:1058A000A617B70710F0A61BB70B881F991F5A95AC
:1058B000A9F780959095BC01CD01089597FB072E1F
:1058C00016F4009407D077FD09D00E944A2C07FCFB
:1058D00005D03EF4909581959F4F08957095619500
:1058E0007F4F0895A1E21A2EAA1BBB1BFD010DC01C
:1058F000AA1FBB1FEE1FFF1FA217B307E407F50780
:1059000020F0A21BB30BE40BF50B661F771F881F5B
:10591000991F1A9469F760957095809590959B01F1
:10592000AC01BD01CF010895EE0FFF1F0590F4916A
:10593000E02D09940E94A22C332312F48A1B9B0BA6
:105940000C94B32CA29FB001B39FC001A39F700D14
:10595000811D1124911DB29F700D811D1124911D77
:1059600008950E94A22CB7FF0895821B930B0895FF
:105970000E94A22CA59F900DB49F900DA49F800D16
:10598000911D11240895B7FF0C94B82C0E94B82CD7
:10599000821B930B08950F93083090F0982F872F58
:1059A000762F652F542F432F322F22270850F4CF04
:1059B000220F331F441F551F661F771F881F991F13
:1059C0000A95B2F70F9108952A153B054C055D0520
:1059D0006E057F058007910708958F929F92AF9281
:1059E000BF92CF92DF92EF92FF92CF93DF93EC01C1
:1059F000688179818A819B81611571058105910595
:105A000021F464E279ED8BE597E02DE133EF41E09D
:105A100050E00E949E2D49015A019B01AC01A7EA6A
:105A2000B1E40E94B82C6B017C01ACEEB4EFA5018F
:105A300094010E94C62CDC01CB018C0D9D1DAE1D76
:105A4000BF1DB7FF03C00197A109B04888839983A0
:105A5000AA83BB839F77DF91CF91FF90EF90DF9078
:105A6000CF90BF90AF909F908F9008950E94ED2CA3
:105A7000089580E091E00E94ED2C0895A0E0B0E050
:105A80008093000190930101A0930201B093030160
:105A90000895FC014150504030F001900616D1F7B6
:105AA0003197CF010895882799270895F999FECF56
:105AB00092BD81BDF89A992780B50895A6E1B0E01E
:105AC00044E050E00C94902DA8E1B0E042E050E0BA
:105AD0000C94902D262FF999FECF92BD81BDF89A96
